{
  "_format": "hh-sol-artifact-1",
  "contractName": "PayUnlock",
  "sourceName": "contracts/PayUnlock.sol",
  "abi": [
    {
      "anonymous": false,
      "inputs": [
        {
          "indexed": true,
          "internalType": "uint256",
          "name": "id",
          "type": "uint256"
        }
      ],
      "name": "CodeSent",
      "type": "event"
    },
    {
      "anonymous": false,
      "inputs": [
        {
          "indexed": true,
          "internalType": "uint256",
          "name": "id",
          "type": "uint256"
        },
        {
          "indexed": true,
          "internalType": "address",
          "name": "seller",
          "type": "address"
        },
        {
          "indexed": false,
          "internalType": "string",
          "name": "fileId",
          "type": "string"
        },
        {
          "indexed": false,
          "internalType": "uint256",
          "name": "price",
          "type": "uint256"
        },
        {
          "indexed": false,
          "internalType": "address",
          "name": "currency",
          "type": "address"
        }
      ],
      "name": "ProductCreated",
      "type": "event"
    },
    {
      "anonymous": false,
      "inputs": [
        {
          "indexed": true,
          "internalType": "uint256",
          "name": "id",
          "type": "uint256"
        },
        {
          "indexed": true,
          "internalType": "address",
          "name": "buyer",
          "type": "address"
        },
        {
          "indexed": false,
          "internalType": "uint256",
          "name": "price",
          "type": "uint256"
        },
        {
          "indexed": false,
          "internalType": "address",
          "name": "currency",
          "type": "address"
        },
        {
          "indexed": false,
          "internalType": "bytes",
          "name": "buyerPubKey",
          "type": "bytes"
        }
      ],
      "name": "Purchased",
      "type": "event"
    },
    {
      "anonymous": false,
      "inputs": [
        {
          "indexed": true,
          "internalType": "uint256",
          "name": "id",
          "type": "uint256"
        },
        {
          "indexed": true,
          "internalType": "address",
          "name": "buyer",
          "type": "address"
        },
        {
          "indexed": false,
          "internalType": "uint256",
          "name": "amount",
          "type": "uint256"
        },
        {
          "indexed": false,
          "internalType": "address",
          "name": "currency",
          "type": "address"
        }
      ],
      "name": "Refunded",
      "type": "event"
    },
    {
      "anonymous": false,
      "inputs": [
        {
          "indexed": true,
          "internalType": "uint256",
          "name": "id",
          "type": "uint256"
        },
        {
          "indexed": false,
          "internalType": "enum PayUnlock.Status",
          "name": "from",
          "type": "uint8"
        },
        {
          "indexed": false,
          "internalType": "enum PayUnlock.Status",
          "name": "to",
          "type": "uint8"
        }
      ],
      "name": "StatusChanged",
      "type": "event"
    },
    {
      "anonymous": false,
      "inputs": [
        {
          "indexed": true,
          "internalType": "uint256",
          "name": "id",
          "type": "uint256"
        },
        {
          "indexed": true,
          "internalType": "address",
          "name": "seller",
          "type": "address"
        },
        {
          "indexed": false,
          "internalType": "uint256",
          "name": "amount",
          "type": "uint256"
        },
        {
          "indexed": false,
          "internalType": "address",
          "name": "currency",
          "type": "address"
        }
      ],
      "name": "Withdrawn",
      "type": "event"
    },
    {
      "inputs": [],
      "name": "DEFAULT_CONFIRM_WINDOW",
      "outputs": [
        {
          "internalType": "uint64",
          "name": "",
          "type": "uint64"
        }
      ],
      "stateMutability": "view",
      "type": "function"
    },
    {
      "inputs": [],
      "name": "DEFAULT_SEND_CODE_WINDOW",
      "outputs": [
        {
          "internalType": "uint64",
          "name": "",
          "type": "uint64"
        }
      ],
      "stateMutability": "view",
      "type": "function"
    },
    {
      "inputs": [
        {
          "internalType": "uint256",
          "name": "id",
          "type": "uint256"
        },
        {
          "internalType": "uint256",
          "name": "expectedPrice",
          "type": "uint256"
        },
        {
          "internalType": "bytes",
          "name": "buyerPubKey",
          "type": "bytes"
        }
      ],
      "name": "buyWithERC20",
      "outputs": [],
      "stateMutability": "nonpayable",
      "type": "function"
    },
    {
      "inputs": [
        {
          "internalType": "uint256",
          "name": "id",
          "type": "uint256"
        },
        {
          "internalType": "uint256",
          "name": "expectedPrice",
          "type": "uint256"
        },
        {
          "internalType": "bytes",
          "name": "buyerPubKey",
          "type": "bytes"
        }
      ],
      "name": "buyWithHBAR",
      "outputs": [],
      "stateMutability": "payable",
      "type": "function"
    },
    {
      "inputs": [
        {
          "internalType": "uint256",
          "name": "id",
          "type": "uint256"
        }
      ],
      "name": "confirmCompleted",
      "outputs": [],
      "stateMutability": "nonpayable",
      "type": "function"
    },
    {
      "inputs": [
        {
          "internalType": "string",
          "name": "fileId",
          "type": "string"
        },
        {
          "internalType": "uint256",
          "name": "price",
          "type": "uint256"
        },
        {
          "internalType": "address",
          "name": "currency",
          "type": "address"
        },
        {
          "internalType": "bytes",
          "name": "sellerPubKey",
          "type": "bytes"
        }
      ],
      "name": "createProduct",
      "outputs": [
        {
          "internalType": "uint256",
          "name": "id",
          "type": "uint256"
        }
      ],
      "stateMutability": "nonpayable",
      "type": "function"
    },
    {
      "inputs": [],
      "name": "debugRead",
      "outputs": [
        {
          "internalType": "string",
          "name": "",
          "type": "string"
        }
      ],
      "stateMutability": "view",
      "type": "function"
    },
    {
      "inputs": [
        {
          "internalType": "string",
          "name": "message",
          "type": "string"
        }
      ],
      "name": "debugWrite",
      "outputs": [],
      "stateMutability": "nonpayable",
      "type": "function"
    },
    {
      "inputs": [],
      "name": "nextId",
      "outputs": [
        {
          "internalType": "uint256",
          "name": "",
          "type": "uint256"
        }
      ],
      "stateMutability": "view",
      "type": "function"
    },
    {
      "inputs": [
        {
          "internalType": "uint256",
          "name": "",
          "type": "uint256"
        }
      ],
      "name": "products",
      "outputs": [
        {
          "internalType": "address",
          "name": "seller",
          "type": "address"
        },
        {
          "internalType": "uint256",
          "name": "price",
          "type": "uint256"
        },
        {
          "internalType": "address",
          "name": "currency",
          "type": "address"
        },
        {
          "internalType": "enum PayUnlock.Status",
          "name": "status",
          "type": "uint8"
        },
        {
          "internalType": "string",
          "name": "fileId",
          "type": "string"
        },
        {
          "internalType": "address",
          "name": "buyer",
          "type": "address"
        },
        {
          "internalType": "bytes",
          "name": "sellerPubKey",
          "type": "bytes"
        },
        {
          "internalType": "bytes",
          "name": "buyerPubKey",
          "type": "bytes"
        },
        {
          "internalType": "bytes",
          "name": "encryptedSymKey",
          "type": "bytes"
        },
        {
          "internalType": "uint64",
          "name": "sendCodeWindow",
          "type": "uint64"
        },
        {
          "internalType": "uint64",
          "name": "confirmWindow",
          "type": "uint64"
        },
        {
          "internalType": "uint64",
          "name": "paidAt",
          "type": "uint64"
        },
        {
          "internalType": "uint64",
          "name": "codeSentAt",
          "type": "uint64"
        }
      ],
      "stateMutability": "view",
      "type": "function"
    },
    {
      "inputs": [
        {
          "internalType": "uint256",
          "name": "id",
          "type": "uint256"
        }
      ],
      "name": "refundBuyer",
      "outputs": [],
      "stateMutability": "nonpayable",
      "type": "function"
    },
    {
      "inputs": [
        {
          "internalType": "uint256",
          "name": "id",
          "type": "uint256"
        },
        {
          "internalType": "bytes",
          "name": "encryptedSymKey",
          "type": "bytes"
        }
      ],
      "name": "sendCode",
      "outputs": [],
      "stateMutability": "nonpayable",
      "type": "function"
    },
    {
      "inputs": [
        {
          "internalType": "uint256",
          "name": "id",
          "type": "uint256"
        }
      ],
      "name": "withdrawSeller",
      "outputs": [],
      "stateMutability": "nonpayable",
      "type": "function"
    },
    {
      "inputs": [
        {
          "internalType": "uint256",
          "name": "id",
          "type": "uint256"
        }
      ],
      "name": "withdrawSellerAfterConfirmTimeout",
      "outputs": [],
      "stateMutability": "nonpayable",
      "type": "function"
    }
  ],
  "bytecode": "0x608060405234801561000f575f80fd5b506121b28061001d5f395ff3fe6080604052600436106100d9575f3560e01c8063767ac9ba1161007c578063aa45c78211610057578063aa45c78214610231578063b12198cf14610250578063d461f86b1461026f578063e8b51ac61461028e575f80fd5b8063767ac9ba146101bb5780637acc0b20146101da578063894196c114610212575f80fd5b806339292763116100b7578063392927631461014557806339976058146101645780633f06fbb71461017a57806361b8ce8c14610199575f80fd5b806321c82bda146100dd5780632677d100146100fe57806330f338fb14610132575b5f80fd5b3480156100e8575f80fd5b506100fc6100f7366004611b5b565b6102af565b005b348015610109575f80fd5b506101146206978081565b60405167ffffffffffffffff90911681526020015b60405180910390f35b6100fc610140366004611b5b565b6105fa565b348015610150575f80fd5b506100fc61015f366004611baa565b61085e565b34801561016f575f80fd5b506101146203f48081565b348015610185575f80fd5b506100fc610194366004611bc1565b610c29565b3480156101a4575f80fd5b506101ad5f5481565b604051908152602001610129565b3480156101c6575f80fd5b506100fc6101d5366004611baa565b610e77565b3480156101e5575f80fd5b506101f96101f4366004611baa565b610fae565b6040516101299d9c9b9a99989796959493929190611c80565b34801561021d575f80fd5b506101ad61022c366004611d74565b611266565b34801561023c575f80fd5b506100fc61024b366004611baa565b611597565b34801561025b575f80fd5b506100fc61026a366004611baa565b6118e8565b34801561027a575f80fd5b506100fc610289366004611e07565b611a74565b348015610299575f80fd5b506102a2611a86565b6040516101299190611e46565b5f848152600160205260408120906002820154600160a01b900460ff1660058111156102dd576102dd611c09565b146103215760405162461bcd60e51b815260206004820152600f60248201526e6e6f74207075726368617361626c6560881b60448201526064015b60405180910390fd5b60028101546001600160a01b03166103675760405162461bcd60e51b815260206004820152600960248201526848424152206f6e6c7960b81b6044820152606401610318565b806001015484146103aa5760405162461bcd60e51b815260206004820152600d60248201526c1c1c9a58d94818da185b99d959609a1b6044820152606401610318565b60048101546001600160a01b0316156103f65760405162461bcd60e51b815260206004820152600e60248201526d185b1c9958591e48189bdd59da1d60921b6044820152606401610318565b816104385760405162461bcd60e51b8152602060048201526012602482015271189d5e595c881ad95e481c995c5d5a5c995960721b6044820152606401610318565b600281015460018201546040516323b872dd60e01b815233600482015230602482015260448101919091526001600160a01b03909116906323b872dd906064016020604051808303815f875af1158015610494573d5f803e3d5ffd5b505050506040513d601f19601f820116820180604052508101906104b89190611e5f565b6105045760405162461bcd60e51b815260206004820152601360248201527f7472616e7366657246726f6d206661696c6564000000000000000000000000006044820152606401610318565b60028101805460ff60a01b1916600160a01b1790556004810180546001600160a01b031916331790556006810161053c838583611f17565b5060088101805467ffffffffffffffff60801b1916600160801b4267ffffffffffffffff160217905560018101546002820154604051339288927fdac7ad6cdf688958e3e31b51780335310d00b22edf2eacc0ea639ae932f701ac926105b092916001600160a01b03169089908990611ffb565b60405180910390a3847fd98efe2dd5b76c52df27ca251c889b2339e9f49fdd2e02e72abbae1136a1f0145f60016040516105eb92919061202d565b60405180910390a25050505050565b5f848152600160205260408120906002820154600160a01b900460ff16600581111561062857610628611c09565b146106675760405162461bcd60e51b815260206004820152600f60248201526e6e6f74207075726368617361626c6560881b6044820152606401610318565b60028101546001600160a01b0316156106ad5760405162461bcd60e51b81526020600482015260086024820152673737ba10242120a960c11b6044820152606401610318565b806001015484146106f05760405162461bcd60e51b815260206004820152600d60248201526c1c1c9a58d94818da185b99d959609a1b6044820152606401610318565b806001015434146107325760405162461bcd60e51b815260206004820152600c60248201526b1ddc9bdb99c8185b5bdd5b9d60a21b6044820152606401610318565b60048101546001600160a01b03161561077e5760405162461bcd60e51b815260206004820152600e60248201526d185b1c9958591e48189bdd59da1d60921b6044820152606401610318565b816107c05760405162461bcd60e51b8152602060048201526012602482015271189d5e595c881ad95e481c995c5d5a5c995960721b6044820152606401610318565b60028101805460ff60a01b1916600160a01b1790556004810180546001600160a01b03191633179055600681016107f8838583611f17565b5060088101805467ffffffffffffffff60801b1916600160801b4267ffffffffffffffff16021790556001810154604051339187917fdac7ad6cdf688958e3e31b51780335310d00b22edf2eacc0ea639ae932f701ac916105b0915f9089908990611ffb565b60025460ff161561089e5760405162461bcd60e51b815260206004820152600a6024820152697265656e7472616e637960b01b6044820152606401610318565b60028054600160ff1990911681179091555f828152602091909152604090206004015481906001600160a01b031633146109065760405162461bcd60e51b81526020600482015260096024820152683737ba10313abcb2b960b91b6044820152606401610318565b5f828152600160208190526040909120906002820154600160a01b900460ff16600581111561093757610937611c09565b1461096f5760405162461bcd60e51b81526020600482015260086024820152671b9bdd0814185a5960c21b6044820152606401610318565b60088101546109929067ffffffffffffffff80821691600160801b90041661205c565b42116109e05760405162461bcd60e51b815260206004820152601760248201527f73656e642077696e646f77206e6f7420657870697265640000000000000000006044820152606401610318565b600281018054600560a01b60ff60a01b1982161790915560ff600160a01b820416906001600160a01b0316610abb57600482015460018301546040515f926001600160a01b031691908381818185875af1925050503d805f8114610a5f576040519150601f19603f3d011682016040523d82523d5f602084013e610a64565b606091505b5050905080610ab55760405162461bcd60e51b815260206004820152601260248201527f4842415220726566756e64206661696c656400000000000000000000000000006044820152606401610318565b50610b88565b6002820154600480840154600185015460405163a9059cbb60e01b81526001600160a01b039283169381019390935260248301529091169063a9059cbb906044016020604051808303815f875af1158015610b18573d5f803e3d5ffd5b505050506040513d601f19601f82011682018060405250810190610b3c9190611e5f565b610b885760405162461bcd60e51b815260206004820152601360248201527f746f6b656e20726566756e64206661696c6564000000000000000000000000006044820152606401610318565b837fd98efe2dd5b76c52df27ca251c889b2339e9f49fdd2e02e72abbae1136a1f014826005604051610bbb92919061202d565b60405180910390a2600482015460018301546002840154604080519283526001600160a01b03918216602084015292169186917fcaaaee4f1b6dabf369319e2fb19e27a2e4209f256861f7631a7e975e408bfe39910160405180910390a350506002805460ff191690555050565b5f8381526001602052604090205483906001600160a01b03163314610c7d5760405162461bcd60e51b815260206004820152600a6024820152693737ba1039b2b63632b960b11b6044820152606401610318565b5f848152600160208190526040909120906002820154600160a01b900460ff166005811115610cae57610cae611c09565b14610ce95760405162461bcd60e51b815260206004820152600b60248201526a1b9bdd081a5b8814185a5960aa1b6044820152606401610318565b60048101546001600160a01b0316610d2e5760405162461bcd60e51b8152602060048201526008602482015267373790313abcb2b960c11b6044820152606401610318565b806007018054610d3d90611e92565b159050610d7b5760405162461bcd60e51b815260206004820152600c60248201526b185b1c9958591e481cd95b9d60a21b6044820152606401610318565b82610db45760405162461bcd60e51b8152602060048201526009602482015268656d707479206b657960b81b6044820152606401610318565b60078101610dc3848683611f17565b506008810180546001600160c01b0316600160c01b4267ffffffffffffffff160217905560028082018054600160a01b80820460ff1693929160ff60a01b19169083021790555060405186907fae082f7be72a49906045257757ff8446a749b598b93e915eada3f3c806044415905f90a2857fd98efe2dd5b76c52df27ca251c889b2339e9f49fdd2e02e72abbae1136a1f014826002604051610e6792919061202d565b60405180910390a2505050505050565b5f8181526001602052604090206004015481906001600160a01b03163314610ecd5760405162461bcd60e51b81526020600482015260096024820152683737ba10313abcb2b960b91b6044820152606401610318565b5f828152600160205260409020600280820154600160a01b900460ff166005811115610efb57610efb611c09565b14610f485760405162461bcd60e51b815260206004820152600f60248201527f6e6f7420696e20436f646553656e7400000000000000000000000000000000006044820152606401610318565b60028101805460ff60a01b198116600360a01b17909155604051600160a01b90910460ff169084907fd98efe2dd5b76c52df27ca251c889b2339e9f49fdd2e02e72abbae1136a1f01490610fa090849060039061202d565b60405180910390a250505050565b600160208190525f918252604090912080549181015460028201546003830180546001600160a01b0395861695939493831693600160a01b90930460ff16929190610ff890611e92565b80601f016020809104026020016040519081016040528092919081815260200182805461102490611e92565b801561106f5780601f106110465761010080835404028352916020019161106f565b820191905f5260205f20905b81548152906001019060200180831161105257829003601f168201915b505050600484015460058501805494956001600160a01b0390921694919350915061109990611e92565b80601f01602080910402602001604051908101604052809291908181526020018280546110c590611e92565b80156111105780601f106110e757610100808354040283529160200191611110565b820191905f5260205f20905b8154815290600101906020018083116110f357829003601f168201915b50505050509080600601805461112590611e92565b80601f016020809104026020016040519081016040528092919081815260200182805461115190611e92565b801561119c5780601f106111735761010080835404028352916020019161119c565b820191905f5260205f20905b81548152906001019060200180831161117f57829003601f168201915b5050505050908060070180546111b190611e92565b80601f01602080910402602001604051908101604052809291908181526020018280546111dd90611e92565b80156112285780601f106111ff57610100808354040283529160200191611228565b820191905f5260205f20905b81548152906001019060200180831161120b57829003601f168201915b5050506008909301549192505067ffffffffffffffff80821691680100000000000000008104821691600160801b8204811691600160c01b9004168d565b5f8085116112a05760405162461bcd60e51b8152602060048201526007602482015266070726963653d360cc1b6044820152606401610318565b5f805490806112ae83612075565b919050559050604051806101a00160405280336001600160a01b03168152602001868152602001856001600160a01b031681526020015f60058111156112f6576112f6611c09565b815260200188888080601f0160208091040260200160405190810160405280939291908181526020018383808284375f92018290525093855250505060208083019190915260408051601f870183900483028101830182528681529201919086908690819084018382808284375f920182905250938552505060408051602080820183528482528086019190915281518082018352848152828601526203f48060608087019190915262069780608087015260a0860185905260c0909501849052868452600180825293829020865181546001600160a01b03199081166001600160a01b039283161783559288015195820195909555918601516002830180549283169190951690811785559486015191949193925074ffffffffffffffffffffffffffffffffffffffffff191617600160a01b83600581111561143c5761143c611c09565b021790555060808201516003820190611455908261208d565b5060a08201516004820180546001600160a01b0319166001600160a01b0390921691909117905560c08201516005820190611490908261208d565b5060e082015160068201906114a5908261208d565b5061010082015160078201906114bb908261208d565b50610120820151600890910180546101408401516101608501516101809095015167ffffffffffffffff908116600160c01b026001600160c01b03968216600160801b02969096166fffffffffffffffffffffffffffffffff92821668010000000000000000026fffffffffffffffffffffffffffffffff199094169190951617919091171691909117919091179055604051339082907f3c2f1f9b0d92b6028b1a1659b22f84a3187cd89f8f3d29465da7f2ce34bd3cec90611585908b908b908b908b90612149565b60405180910390a39695505050505050565b60025460ff16156115d75760405162461bcd60e51b815260206004820152600a6024820152697265656e7472616e637960b01b6044820152606401610318565b60028054600160ff1990911681179091555f828152602091909152604090205481906001600160a01b0316331461163d5760405162461bcd60e51b815260206004820152600a6024820152693737ba1039b2b63632b960b11b6044820152606401610318565b5f82815260016020526040902060036002820154600160a01b900460ff16600581111561166c5761166c611c09565b146116a95760405162461bcd60e51b815260206004820152600d60248201526c1b9bdd0810dbdb5c1b195d1959609a1b6044820152606401610318565b600281018054600160a21b60ff60a01b1982161790915560ff600160a01b820416906001600160a01b031661178157815460018301546040515f926001600160a01b031691908381818185875af1925050503d805f8114611725576040519150601f19603f3d011682016040523d82523d5f602084013e61172a565b606091505b505090508061177b5760405162461bcd60e51b815260206004820152601260248201527f48424152207061796f7574206661696c656400000000000000000000000000006044820152606401610318565b5061184a565b60028201548254600184015460405163a9059cbb60e01b81526001600160a01b039283166004820152602481019190915291169063a9059cbb906044016020604051808303815f875af11580156117da573d5f803e3d5ffd5b505050506040513d601f19601f820116820180604052508101906117fe9190611e5f565b61184a5760405162461bcd60e51b815260206004820152601360248201527f746f6b656e207061796f7574206661696c6564000000000000000000000000006044820152606401610318565b815460018301546002840154604080519283526001600160a01b03918216602084015292169186917f9e6bae4658d3232f3d97671c6dfee1e34b63f3ff5113da6846634b99c950d92a910160405180910390a3837fd98efe2dd5b76c52df27ca251c889b2339e9f49fdd2e02e72abbae1136a1f0148260046040516118d092919061202d565b60405180910390a250506002805460ff191690555050565b60025460ff16156119285760405162461bcd60e51b815260206004820152600a6024820152697265656e7472616e637960b01b6044820152606401610318565b60028054600160ff1990911681179091555f828152602091909152604090205481906001600160a01b0316331461198e5760405162461bcd60e51b815260206004820152600a6024820152693737ba1039b2b63632b960b11b6044820152606401610318565b5f828152600160205260409020600280820154600160a01b900460ff1660058111156119bc576119bc611c09565b146119f85760405162461bcd60e51b815260206004820152600c60248201526b1b9bdd0810dbd91954d95b9d60a21b6044820152606401610318565b6008810154611a269067ffffffffffffffff680100000000000000008204811691600160c01b90041661205c565b42116116a95760405162461bcd60e51b815260206004820152601a60248201527f636f6e6669726d2077696e646f77206e6f7420657870697265640000000000006044820152606401610318565b6003611a81828483611f17565b505050565b606060038054611a9590611e92565b80601f0160208091040260200160405190810160405280929190818152602001828054611ac190611e92565b8015611b0c5780601f10611ae357610100808354040283529160200191611b0c565b820191905f5260205f20905b815481529060010190602001808311611aef57829003601f168201915b5050505050905090565b5f8083601f840112611b26575f80fd5b50813567ffffffffffffffff811115611b3d575f80fd5b602083019150836020828501011115611b54575f80fd5b9250929050565b5f805f8060608587031215611b6e575f80fd5b8435935060208501359250604085013567ffffffffffffffff811115611b92575f80fd5b611b9e87828801611b16565b95989497509550505050565b5f60208284031215611bba575f80fd5b5035919050565b5f805f60408486031215611bd3575f80fd5b83359250602084013567ffffffffffffffff811115611bf0575f80fd5b611bfc86828701611b16565b9497909650939450505050565b634e487b7160e01b5f52602160045260245ffd5b60068110611c3957634e487b7160e01b5f52602160045260245ffd5b9052565b5f81518084525f5b81811015611c6157602081850181015186830182015201611c45565b505f602082860101526020601f19601f83011685010191505092915050565b6001600160a01b038e1681528c6020820152611ca7604082018d6001600160a01b03169052565b611cb4606082018c611c1d565b6101a060808201525f611ccb6101a083018c611c3d565b6001600160a01b038b1660a084015282810360c0840152611cec818b611c3d565b905082810360e0840152611d00818a611c3d565b9050828103610100840152611d158189611c3d565b915050611d2f61012083018767ffffffffffffffff169052565b67ffffffffffffffff851661014083015267ffffffffffffffff841661016083015267ffffffffffffffff83166101808301529e9d5050505050505050505050505050565b5f805f805f8060808789031215611d89575f80fd5b863567ffffffffffffffff80821115611da0575f80fd5b611dac8a838b01611b16565b909850965060208901359550604089013591506001600160a01b0382168214611dd3575f80fd5b90935060608801359080821115611de8575f80fd5b50611df589828a01611b16565b979a9699509497509295939492505050565b5f8060208385031215611e18575f80fd5b823567ffffffffffffffff811115611e2e575f80fd5b611e3a85828601611b16565b90969095509350505050565b602081525f611e586020830184611c3d565b9392505050565b5f60208284031215611e6f575f80fd5b81518015158114611e58575f80fd5b634e487b7160e01b5f52604160045260245ffd5b600181811c90821680611ea657607f821691505b602082108103611ec457634e487b7160e01b5f52602260045260245ffd5b50919050565b601f821115611a81575f81815260208120601f850160051c81016020861015611ef05750805b601f850160051c820191505b81811015611f0f57828155600101611efc565b505050505050565b67ffffffffffffffff831115611f2f57611f2f611e7e565b611f4383611f3d8354611e92565b83611eca565b5f601f841160018114611f74575f8515611f5d5750838201355b5f19600387901b1c1916600186901b178355611fcc565b5f83815260209020601f19861690835b82811015611fa45786850135825560209485019460019092019101611f84565b5086821015611fc0575f1960f88860031b161c19848701351681555b505060018560011b0183555b5050505050565b81835281816020850137505f828201602090810191909152601f909101601f19169091010190565b8481526001600160a01b0384166020820152606060408201525f612023606083018486611fd3565b9695505050505050565b6040810161203b8285611c1d565b611e586020830184611c1d565b634e487b7160e01b5f52601160045260245ffd5b8082018082111561206f5761206f612048565b92915050565b5f6001820161208657612086612048565b5060010190565b815167ffffffffffffffff8111156120a7576120a7611e7e565b6120bb816120b58454611e92565b84611eca565b602080601f8311600181146120ee575f84156120d75750858301515b5f19600386901b1c1916600185901b178555611f0f565b5f85815260208120601f198616915b8281101561211c578886015182559484019460019091019084016120fd565b508582101561213957878501515f19600388901b60f8161c191681555b5050505050600190811b01905550565b606081525f61215c606083018688611fd3565b90508360208301526001600160a01b03831660408301529594505050505056fea2646970667358221220e07997d2e21bd962e35cb759a47ffc8a0710de0598d54523fd372a5103b05cc064736f6c63430008150033",
  "linkReferences": {},
  "deployedLinkReferences": {}
}