{
  "_format": "hh-sol-artifact-1",
  "contractName": "PayUnlock",
  "sourceName": "contracts/PayUnlock.sol",
  "abi": [
    {
      "anonymous": false,
      "inputs": [
        {
          "indexed": true,
          "internalType": "uint256",
          "name": "id",
          "type": "uint256"
        }
      ],
      "name": "CodeSent",
      "type": "event"
    },
    {
      "anonymous": false,
      "inputs": [
        {
          "indexed": true,
          "internalType": "uint256",
          "name": "id",
          "type": "uint256"
        },
        {
          "indexed": true,
          "internalType": "address",
          "name": "seller",
          "type": "address"
        },
        {
          "indexed": false,
          "internalType": "string",
          "name": "fileId",
          "type": "string"
        },
        {
          "indexed": false,
          "internalType": "uint256",
          "name": "price",
          "type": "uint256"
        },
        {
          "indexed": false,
          "internalType": "address",
          "name": "currency",
          "type": "address"
        }
      ],
      "name": "ProductCreated",
      "type": "event"
    },
    {
      "anonymous": false,
      "inputs": [
        {
          "indexed": true,
          "internalType": "uint256",
          "name": "id",
          "type": "uint256"
        },
        {
          "indexed": true,
          "internalType": "address",
          "name": "buyer",
          "type": "address"
        },
        {
          "indexed": false,
          "internalType": "uint256",
          "name": "price",
          "type": "uint256"
        },
        {
          "indexed": false,
          "internalType": "address",
          "name": "currency",
          "type": "address"
        },
        {
          "indexed": false,
          "internalType": "bytes",
          "name": "buyerPubKey",
          "type": "bytes"
        }
      ],
      "name": "Purchased",
      "type": "event"
    },
    {
      "anonymous": false,
      "inputs": [
        {
          "indexed": true,
          "internalType": "uint256",
          "name": "id",
          "type": "uint256"
        },
        {
          "indexed": true,
          "internalType": "address",
          "name": "buyer",
          "type": "address"
        },
        {
          "indexed": false,
          "internalType": "uint256",
          "name": "amount",
          "type": "uint256"
        },
        {
          "indexed": false,
          "internalType": "address",
          "name": "currency",
          "type": "address"
        }
      ],
      "name": "Refunded",
      "type": "event"
    },
    {
      "anonymous": false,
      "inputs": [
        {
          "indexed": true,
          "internalType": "uint256",
          "name": "id",
          "type": "uint256"
        },
        {
          "indexed": false,
          "internalType": "enum PayUnlock.Status",
          "name": "from",
          "type": "uint8"
        },
        {
          "indexed": false,
          "internalType": "enum PayUnlock.Status",
          "name": "to",
          "type": "uint8"
        }
      ],
      "name": "StatusChanged",
      "type": "event"
    },
    {
      "anonymous": false,
      "inputs": [
        {
          "indexed": true,
          "internalType": "uint256",
          "name": "id",
          "type": "uint256"
        },
        {
          "indexed": true,
          "internalType": "address",
          "name": "seller",
          "type": "address"
        },
        {
          "indexed": false,
          "internalType": "uint256",
          "name": "amount",
          "type": "uint256"
        },
        {
          "indexed": false,
          "internalType": "address",
          "name": "currency",
          "type": "address"
        }
      ],
      "name": "Withdrawn",
      "type": "event"
    },
    {
      "inputs": [],
      "name": "DEFAULT_CONFIRM_WINDOW",
      "outputs": [
        {
          "internalType": "uint64",
          "name": "",
          "type": "uint64"
        }
      ],
      "stateMutability": "view",
      "type": "function"
    },
    {
      "inputs": [],
      "name": "DEFAULT_SEND_CODE_WINDOW",
      "outputs": [
        {
          "internalType": "uint64",
          "name": "",
          "type": "uint64"
        }
      ],
      "stateMutability": "view",
      "type": "function"
    },
    {
      "inputs": [
        {
          "internalType": "uint256",
          "name": "id",
          "type": "uint256"
        },
        {
          "internalType": "uint256",
          "name": "expectedPrice",
          "type": "uint256"
        },
        {
          "internalType": "bytes",
          "name": "buyerPubKey",
          "type": "bytes"
        }
      ],
      "name": "buyWithERC20",
      "outputs": [],
      "stateMutability": "nonpayable",
      "type": "function"
    },
    {
      "inputs": [
        {
          "internalType": "uint256",
          "name": "id",
          "type": "uint256"
        },
        {
          "internalType": "uint256",
          "name": "expectedPrice",
          "type": "uint256"
        },
        {
          "internalType": "bytes",
          "name": "buyerPubKey",
          "type": "bytes"
        }
      ],
      "name": "buyWithHBAR",
      "outputs": [],
      "stateMutability": "payable",
      "type": "function"
    },
    {
      "inputs": [
        {
          "internalType": "uint256",
          "name": "id",
          "type": "uint256"
        }
      ],
      "name": "confirmCompleted",
      "outputs": [],
      "stateMutability": "nonpayable",
      "type": "function"
    },
    {
      "inputs": [
        {
          "internalType": "string",
          "name": "fileId",
          "type": "string"
        },
        {
          "internalType": "uint256",
          "name": "price",
          "type": "uint256"
        },
        {
          "internalType": "address",
          "name": "currency",
          "type": "address"
        },
        {
          "internalType": "bytes",
          "name": "sellerPubKey",
          "type": "bytes"
        },
        {
          "internalType": "bytes",
          "name": "encryptedSymKey",
          "type": "bytes"
        }
      ],
      "name": "createProduct",
      "outputs": [
        {
          "internalType": "uint256",
          "name": "id",
          "type": "uint256"
        }
      ],
      "stateMutability": "nonpayable",
      "type": "function"
    },
    {
      "inputs": [],
      "name": "debugRead",
      "outputs": [
        {
          "internalType": "string",
          "name": "",
          "type": "string"
        }
      ],
      "stateMutability": "view",
      "type": "function"
    },
    {
      "inputs": [
        {
          "internalType": "string",
          "name": "message",
          "type": "string"
        }
      ],
      "name": "debugWrite",
      "outputs": [],
      "stateMutability": "nonpayable",
      "type": "function"
    },
    {
      "inputs": [],
      "name": "nextId",
      "outputs": [
        {
          "internalType": "uint256",
          "name": "",
          "type": "uint256"
        }
      ],
      "stateMutability": "view",
      "type": "function"
    },
    {
      "inputs": [
        {
          "internalType": "uint256",
          "name": "",
          "type": "uint256"
        }
      ],
      "name": "products",
      "outputs": [
        {
          "internalType": "address",
          "name": "seller",
          "type": "address"
        },
        {
          "internalType": "uint256",
          "name": "price",
          "type": "uint256"
        },
        {
          "internalType": "address",
          "name": "currency",
          "type": "address"
        },
        {
          "internalType": "enum PayUnlock.Status",
          "name": "status",
          "type": "uint8"
        },
        {
          "internalType": "string",
          "name": "fileId",
          "type": "string"
        },
        {
          "internalType": "address",
          "name": "buyer",
          "type": "address"
        },
        {
          "internalType": "bytes",
          "name": "sellerPubKey",
          "type": "bytes"
        },
        {
          "internalType": "bytes",
          "name": "buyerPubKey",
          "type": "bytes"
        },
        {
          "internalType": "bytes",
          "name": "encryptedSymKey",
          "type": "bytes"
        },
        {
          "internalType": "uint64",
          "name": "sendCodeWindow",
          "type": "uint64"
        },
        {
          "internalType": "uint64",
          "name": "confirmWindow",
          "type": "uint64"
        },
        {
          "internalType": "uint64",
          "name": "paidAt",
          "type": "uint64"
        },
        {
          "internalType": "uint64",
          "name": "codeSentAt",
          "type": "uint64"
        }
      ],
      "stateMutability": "view",
      "type": "function"
    },
    {
      "inputs": [
        {
          "internalType": "uint256",
          "name": "id",
          "type": "uint256"
        }
      ],
      "name": "refundBuyer",
      "outputs": [],
      "stateMutability": "nonpayable",
      "type": "function"
    },
    {
      "inputs": [
        {
          "internalType": "uint256",
          "name": "id",
          "type": "uint256"
        },
        {
          "internalType": "bytes",
          "name": "encryptedSymKey",
          "type": "bytes"
        }
      ],
      "name": "sendCode",
      "outputs": [],
      "stateMutability": "nonpayable",
      "type": "function"
    },
    {
      "inputs": [
        {
          "internalType": "uint256",
          "name": "id",
          "type": "uint256"
        }
      ],
      "name": "withdrawSeller",
      "outputs": [],
      "stateMutability": "nonpayable",
      "type": "function"
    },
    {
      "inputs": [
        {
          "internalType": "uint256",
          "name": "id",
          "type": "uint256"
        }
      ],
      "name": "withdrawSellerAfterConfirmTimeout",
      "outputs": [],
      "stateMutability": "nonpayable",
      "type": "function"
    }
  ],
  "bytecode": "0x608060405234801561000f575f80fd5b506124128061001d5f395ff3fe6080604052600436106100d9575f3560e01c806362722abf1161007c578063aa45c78211610057578063aa45c78214610231578063b12198cf14610250578063d461f86b1461026f578063e8b51ac61461028e575f80fd5b806362722abf146101bb578063767ac9ba146101da5780637acc0b20146101f9575f80fd5b806339292763116100b7578063392927631461014557806339976058146101645780633f06fbb71461017a57806361b8ce8c14610199575f80fd5b806321c82bda146100dd5780632677d100146100fe57806330f338fb14610132575b5f80fd5b3480156100e8575f80fd5b506100fc6100f7366004611cba565b6102af565b005b348015610109575f80fd5b506101146206978081565b60405167ffffffffffffffff90911681526020015b60405180910390f35b6100fc610140366004611cba565b6105fa565b348015610150575f80fd5b506100fc61015f366004611d09565b610878565b34801561016f575f80fd5b506101146203f48081565b348015610185575f80fd5b506100fc610194366004611d20565b610c43565b3480156101a4575f80fd5b506101ad5f5481565b604051908152602001610129565b3480156101c6575f80fd5b506101ad6101d5366004611d68565b610e91565b3480156101e5575f80fd5b506100fc6101f4366004611d09565b6111ea565b348015610204575f80fd5b50610218610213366004611d09565b611321565b6040516101299d9c9b9a99989796959493929190611ea4565b34801561023c575f80fd5b506100fc61024b366004611d09565b6115d9565b34801561025b575f80fd5b506100fc61026a366004611d09565b61192a565b34801561027a575f80fd5b506100fc610289366004611f98565b611ab6565b348015610299575f80fd5b506102a2611ac8565b6040516101299190611fd7565b5f848152600160205260408120906002820154600160a01b900460ff1660058111156102dd576102dd611e23565b146103215760405162461bcd60e51b815260206004820152600f60248201526e6e6f74207075726368617361626c6560881b60448201526064015b60405180910390fd5b60028101546001600160a01b03166103675760405162461bcd60e51b815260206004820152600960248201526848424152206f6e6c7960b81b6044820152606401610318565b806001015484146103aa5760405162461bcd60e51b815260206004820152600d60248201526c1c1c9a58d94818da185b99d959609a1b6044820152606401610318565b60048101546001600160a01b0316156103f65760405162461bcd60e51b815260206004820152600e60248201526d185b1c9958591e48189bdd59da1d60921b6044820152606401610318565b816104385760405162461bcd60e51b8152602060048201526012602482015271189d5e595c881ad95e481c995c5d5a5c995960721b6044820152606401610318565b600281015460018201546040516323b872dd60e01b815233600482015230602482015260448101919091526001600160a01b03909116906323b872dd906064016020604051808303815f875af1158015610494573d5f803e3d5ffd5b505050506040513d601f19601f820116820180604052508101906104b89190611ff0565b6105045760405162461bcd60e51b815260206004820152601360248201527f7472616e7366657246726f6d206661696c6564000000000000000000000000006044820152606401610318565b60028101805460ff60a01b1916600160a01b1790556004810180546001600160a01b031916331790556006810161053c8385836120a8565b5060088101805467ffffffffffffffff60801b1916600160801b4267ffffffffffffffff160217905560018101546002820154604051339288927fdac7ad6cdf688958e3e31b51780335310d00b22edf2eacc0ea639ae932f701ac926105b092916001600160a01b0316908990899061218c565b60405180910390a3847fd98efe2dd5b76c52df27ca251c889b2339e9f49fdd2e02e72abbae1136a1f0145f60016040516105eb9291906121be565b60405180910390a25050505050565b5f848152600160205260408120906002820154600160a01b900460ff16600581111561062857610628611e23565b146106675760405162461bcd60e51b815260206004820152600f60248201526e6e6f74207075726368617361626c6560881b6044820152606401610318565b60028101546001600160a01b0316156106ad5760405162461bcd60e51b81526020600482015260086024820152673737ba10242120a960c11b6044820152606401610318565b806001015484146106f05760405162461bcd60e51b815260206004820152600d60248201526c1c1c9a58d94818da185b99d959609a1b6044820152606401610318565b8060010154341461070034611b58565b61070d8360010154611b58565b60405160200161071e9291906121d9565b6040516020818303038152906040529061074b5760405162461bcd60e51b81526004016103189190611fd7565b5060048101546001600160a01b0316156107985760405162461bcd60e51b815260206004820152600e60248201526d185b1c9958591e48189bdd59da1d60921b6044820152606401610318565b816107da5760405162461bcd60e51b8152602060048201526012602482015271189d5e595c881ad95e481c995c5d5a5c995960721b6044820152606401610318565b60028101805460ff60a01b1916600160a01b1790556004810180546001600160a01b03191633179055600681016108128385836120a8565b5060088101805467ffffffffffffffff60801b1916600160801b4267ffffffffffffffff16021790556001810154604051339187917fdac7ad6cdf688958e3e31b51780335310d00b22edf2eacc0ea639ae932f701ac916105b0915f908990899061218c565b60025460ff16156108b85760405162461bcd60e51b815260206004820152600a6024820152697265656e7472616e637960b01b6044820152606401610318565b60028054600160ff1990911681179091555f828152602091909152604090206004015481906001600160a01b031633146109205760405162461bcd60e51b81526020600482015260096024820152683737ba10313abcb2b960b91b6044820152606401610318565b5f828152600160208190526040909120906002820154600160a01b900460ff16600581111561095157610951611e23565b146109895760405162461bcd60e51b81526020600482015260086024820152671b9bdd0814185a5960c21b6044820152606401610318565b60088101546109ac9067ffffffffffffffff80821691600160801b90041661225b565b42116109fa5760405162461bcd60e51b815260206004820152601760248201527f73656e642077696e646f77206e6f7420657870697265640000000000000000006044820152606401610318565b600281018054600560a01b60ff60a01b1982161790915560ff600160a01b820416906001600160a01b0316610ad557600482015460018301546040515f926001600160a01b031691908381818185875af1925050503d805f8114610a79576040519150601f19603f3d011682016040523d82523d5f602084013e610a7e565b606091505b5050905080610acf5760405162461bcd60e51b815260206004820152601260248201527f4842415220726566756e64206661696c656400000000000000000000000000006044820152606401610318565b50610ba2565b6002820154600480840154600185015460405163a9059cbb60e01b81526001600160a01b039283169381019390935260248301529091169063a9059cbb906044016020604051808303815f875af1158015610b32573d5f803e3d5ffd5b505050506040513d601f19601f82011682018060405250810190610b569190611ff0565b610ba25760405162461bcd60e51b815260206004820152601360248201527f746f6b656e20726566756e64206661696c6564000000000000000000000000006044820152606401610318565b837fd98efe2dd5b76c52df27ca251c889b2339e9f49fdd2e02e72abbae1136a1f014826005604051610bd59291906121be565b60405180910390a2600482015460018301546002840154604080519283526001600160a01b03918216602084015292169186917fcaaaee4f1b6dabf369319e2fb19e27a2e4209f256861f7631a7e975e408bfe39910160405180910390a350506002805460ff191690555050565b5f8381526001602052604090205483906001600160a01b03163314610c975760405162461bcd60e51b815260206004820152600a6024820152693737ba1039b2b63632b960b11b6044820152606401610318565b5f848152600160208190526040909120906002820154600160a01b900460ff166005811115610cc857610cc8611e23565b14610d035760405162461bcd60e51b815260206004820152600b60248201526a1b9bdd081a5b8814185a5960aa1b6044820152606401610318565b60048101546001600160a01b0316610d485760405162461bcd60e51b8152602060048201526008602482015267373790313abcb2b960c11b6044820152606401610318565b806007018054610d5790612023565b159050610d955760405162461bcd60e51b815260206004820152600c60248201526b185b1c9958591e481cd95b9d60a21b6044820152606401610318565b82610dce5760405162461bcd60e51b8152602060048201526009602482015268656d707479206b657960b81b6044820152606401610318565b60078101610ddd8486836120a8565b506008810180546001600160c01b0316600160c01b4267ffffffffffffffff160217905560028082018054600160a01b80820460ff1693929160ff60a01b19169083021790555060405186907fae082f7be72a49906045257757ff8446a749b598b93e915eada3f3c806044415905f90a2857fd98efe2dd5b76c52df27ca251c889b2339e9f49fdd2e02e72abbae1136a1f014826002604051610e819291906121be565b60405180910390a2505050505050565b5f808711610ecb5760405162461bcd60e51b8152602060048201526007602482015266070726963653d360cc1b6044820152606401610318565b5f80549080610ed983612274565b919050559050604051806101a00160405280336001600160a01b03168152602001888152602001876001600160a01b031681526020015f6005811115610f2157610f21611e23565b81526020018a8a8080601f0160208091040260200160405190810160405280939291908181526020018383808284375f92018290525093855250505060208083019190915260408051601f890183900483028101830182528881529201919088908890819084018382808284375f92018290525093855250506040805160208181018352938152838501528051601f88018490048402810184018252878152930192918791508690819084018382808284375f92018290525093855250506203f4806020808501919091526206978060408086019190915260608086018590526080909501849052868452600180835293819020865181546001600160a01b039182166001600160a01b031991821617835593880151958201959095559086015160028201805491909516928116831785559486015190949093925074ffffffffffffffffffffffffffffffffffffffffff191617600160a01b83600581111561108d5761108d611e23565b0217905550608082015160038201906110a6908261228c565b5060a08201516004820180546001600160a01b0319166001600160a01b0390921691909117905560c082015160058201906110e1908261228c565b5060e082015160068201906110f6908261228c565b50610100820151600782019061110c908261228c565b50610120820151600890910180546101408401516101608501516101809095015167ffffffffffffffff908116600160c01b026001600160c01b03968216600160801b02969096166fffffffffffffffffffffffffffffffff92821668010000000000000000026fffffffffffffffffffffffffffffffff199094169190951617919091171691909117919091179055604051339082907f3c2f1f9b0d92b6028b1a1659b22f84a3187cd89f8f3d29465da7f2ce34bd3cec906111d6908d908d908d908d90612348565b60405180910390a398975050505050505050565b5f8181526001602052604090206004015481906001600160a01b031633146112405760405162461bcd60e51b81526020600482015260096024820152683737ba10313abcb2b960b91b6044820152606401610318565b5f828152600160205260409020600280820154600160a01b900460ff16600581111561126e5761126e611e23565b146112bb5760405162461bcd60e51b815260206004820152600f60248201527f6e6f7420696e20436f646553656e7400000000000000000000000000000000006044820152606401610318565b60028101805460ff60a01b198116600360a01b17909155604051600160a01b90910460ff169084907fd98efe2dd5b76c52df27ca251c889b2339e9f49fdd2e02e72abbae1136a1f014906113139084906003906121be565b60405180910390a250505050565b600160208190525f918252604090912080549181015460028201546003830180546001600160a01b0395861695939493831693600160a01b90930460ff1692919061136b90612023565b80601f016020809104026020016040519081016040528092919081815260200182805461139790612023565b80156113e25780601f106113b9576101008083540402835291602001916113e2565b820191905f5260205f20905b8154815290600101906020018083116113c557829003601f168201915b505050600484015460058501805494956001600160a01b0390921694919350915061140c90612023565b80601f016020809104026020016040519081016040528092919081815260200182805461143890612023565b80156114835780601f1061145a57610100808354040283529160200191611483565b820191905f5260205f20905b81548152906001019060200180831161146657829003601f168201915b50505050509080600601805461149890612023565b80601f01602080910402602001604051908101604052809291908181526020018280546114c490612023565b801561150f5780601f106114e65761010080835404028352916020019161150f565b820191905f5260205f20905b8154815290600101906020018083116114f257829003601f168201915b50505050509080600701805461152490612023565b80601f016020809104026020016040519081016040528092919081815260200182805461155090612023565b801561159b5780601f106115725761010080835404028352916020019161159b565b820191905f5260205f20905b81548152906001019060200180831161157e57829003601f168201915b5050506008909301549192505067ffffffffffffffff80821691680100000000000000008104821691600160801b8204811691600160c01b9004168d565b60025460ff16156116195760405162461bcd60e51b815260206004820152600a6024820152697265656e7472616e637960b01b6044820152606401610318565b60028054600160ff1990911681179091555f828152602091909152604090205481906001600160a01b0316331461167f5760405162461bcd60e51b815260206004820152600a6024820152693737ba1039b2b63632b960b11b6044820152606401610318565b5f82815260016020526040902060036002820154600160a01b900460ff1660058111156116ae576116ae611e23565b146116eb5760405162461bcd60e51b815260206004820152600d60248201526c1b9bdd0810dbdb5c1b195d1959609a1b6044820152606401610318565b600281018054600160a21b60ff60a01b1982161790915560ff600160a01b820416906001600160a01b03166117c357815460018301546040515f926001600160a01b031691908381818185875af1925050503d805f8114611767576040519150601f19603f3d011682016040523d82523d5f602084013e61176c565b606091505b50509050806117bd5760405162461bcd60e51b815260206004820152601260248201527f48424152207061796f7574206661696c656400000000000000000000000000006044820152606401610318565b5061188c565b60028201548254600184015460405163a9059cbb60e01b81526001600160a01b039283166004820152602481019190915291169063a9059cbb906044016020604051808303815f875af115801561181c573d5f803e3d5ffd5b505050506040513d601f19601f820116820180604052508101906118409190611ff0565b61188c5760405162461bcd60e51b815260206004820152601360248201527f746f6b656e207061796f7574206661696c6564000000000000000000000000006044820152606401610318565b815460018301546002840154604080519283526001600160a01b03918216602084015292169186917f9e6bae4658d3232f3d97671c6dfee1e34b63f3ff5113da6846634b99c950d92a910160405180910390a3837fd98efe2dd5b76c52df27ca251c889b2339e9f49fdd2e02e72abbae1136a1f0148260046040516119129291906121be565b60405180910390a250506002805460ff191690555050565b60025460ff161561196a5760405162461bcd60e51b815260206004820152600a6024820152697265656e7472616e637960b01b6044820152606401610318565b60028054600160ff1990911681179091555f828152602091909152604090205481906001600160a01b031633146119d05760405162461bcd60e51b815260206004820152600a6024820152693737ba1039b2b63632b960b11b6044820152606401610318565b5f828152600160205260409020600280820154600160a01b900460ff1660058111156119fe576119fe611e23565b14611a3a5760405162461bcd60e51b815260206004820152600c60248201526b1b9bdd0810dbd91954d95b9d60a21b6044820152606401610318565b6008810154611a689067ffffffffffffffff680100000000000000008204811691600160c01b90041661225b565b42116116eb5760405162461bcd60e51b815260206004820152601a60248201527f636f6e6669726d2077696e646f77206e6f7420657870697265640000000000006044820152606401610318565b6003611ac38284836120a8565b505050565b606060038054611ad790612023565b80601f0160208091040260200160405190810160405280929190818152602001828054611b0390612023565b8015611b4e5780601f10611b2557610100808354040283529160200191611b4e565b820191905f5260205f20905b815481529060010190602001808311611b3157829003601f168201915b5050505050905090565b6060815f03611b7e5750506040805180820190915260018152600360fc1b602082015290565b815f5b8115611ba75780611b9181612274565b9150611ba09050600a8361238f565b9150611b81565b5f8167ffffffffffffffff811115611bc157611bc161200f565b6040519080825280601f01601f191660200182016040528015611beb576020820181803683370190505b5090505b8415611c6d57611c006001836123a2565b9150611c0d600a866123b5565b611c1890603061225b565b60f81b818381518110611c2d57611c2d6123c8565b60200101907effffffffffffffffffffffffffffffffffffffffffffffffffffffffffffff191690815f1a905350611c66600a8661238f565b9450611bef565b949350505050565b5f8083601f840112611c85575f80fd5b50813567ffffffffffffffff811115611c9c575f80fd5b602083019150836020828501011115611cb3575f80fd5b9250929050565b5f805f8060608587031215611ccd575f80fd5b8435935060208501359250604085013567ffffffffffffffff811115611cf1575f80fd5b611cfd87828801611c75565b95989497509550505050565b5f60208284031215611d19575f80fd5b5035919050565b5f805f60408486031215611d32575f80fd5b83359250602084013567ffffffffffffffff811115611d4f575f80fd5b611d5b86828701611c75565b9497909650939450505050565b5f805f805f805f8060a0898b031215611d7f575f80fd5b883567ffffffffffffffff80821115611d96575f80fd5b611da28c838d01611c75565b909a50985060208b0135975060408b013591506001600160a01b0382168214611dc9575f80fd5b90955060608a01359080821115611dde575f80fd5b611dea8c838d01611c75565b909650945060808b0135915080821115611e02575f80fd5b50611e0f8b828c01611c75565b999c989b5096995094979396929594505050565b634e487b7160e01b5f52602160045260245ffd5b60068110611e5357634e487b7160e01b5f52602160045260245ffd5b9052565b5f5b83811015611e71578181015183820152602001611e59565b50505f910152565b5f8151808452611e90816020860160208601611e57565b601f01601f19169290920160200192915050565b6001600160a01b038e1681528c6020820152611ecb604082018d6001600160a01b03169052565b611ed8606082018c611e37565b6101a060808201525f611eef6101a083018c611e79565b6001600160a01b038b1660a084015282810360c0840152611f10818b611e79565b905082810360e0840152611f24818a611e79565b9050828103610100840152611f398189611e79565b915050611f5361012083018767ffffffffffffffff169052565b67ffffffffffffffff851661014083015267ffffffffffffffff841661016083015267ffffffffffffffff83166101808301529e9d5050505050505050505050505050565b5f8060208385031215611fa9575f80fd5b823567ffffffffffffffff811115611fbf575f80fd5b611fcb85828601611c75565b90969095509350505050565b602081525f611fe96020830184611e79565b9392505050565b5f60208284031215612000575f80fd5b81518015158114611fe9575f80fd5b634e487b7160e01b5f52604160045260245ffd5b600181811c9082168061203757607f821691505b60208210810361205557634e487b7160e01b5f52602260045260245ffd5b50919050565b601f821115611ac3575f81815260208120601f850160051c810160208610156120815750805b601f850160051c820191505b818110156120a05782815560010161208d565b505050505050565b67ffffffffffffffff8311156120c0576120c061200f565b6120d4836120ce8354612023565b8361205b565b5f601f841160018114612105575f85156120ee5750838201355b5f19600387901b1c1916600186901b17835561215d565b5f83815260209020601f19861690835b828110156121355786850135825560209485019460019092019101612115565b5086821015612151575f1960f88860031b161c19848701351681555b505060018560011b0183555b5050505050565b81835281816020850137505f828201602090810191909152601f909101601f19169091010190565b8481526001600160a01b0384166020820152606060408201525f6121b4606083018486612164565b9695505050505050565b604081016121cc8285611e37565b611fe96020830184611e37565b7f77726f6e6720616d6f756e743a2073656e74200000000000000000000000000081525f8351612210816013850160208801611e57565b6a0161032bc3832b1ba32b2160ad1b601391840191820152835161223b81601e840160208801611e57565b01601e01949350505050565b634e487b7160e01b5f52601160045260245ffd5b8082018082111561226e5761226e612247565b92915050565b5f6001820161228557612285612247565b5060010190565b815167ffffffffffffffff8111156122a6576122a661200f565b6122ba816122b48454612023565b8461205b565b602080601f8311600181146122ed575f84156122d65750858301515b5f19600386901b1c1916600185901b1785556120a0565b5f85815260208120601f198616915b8281101561231b578886015182559484019460019091019084016122fc565b508582101561233857878501515f19600388901b60f8161c191681555b5050505050600190811b01905550565b606081525f61235b606083018688612164565b90508360208301526001600160a01b038316604083015295945050505050565b634e487b7160e01b5f52601260045260245ffd5b5f8261239d5761239d61237b565b500490565b8181038181111561226e5761226e612247565b5f826123c3576123c361237b565b500690565b634e487b7160e01b5f52603260045260245ffdfea264697066735822122077e0557684e6d4ae660e7acc242919063448af546a7fa52d5929800e2fff5b8c64736f6c63430008150033",
  "linkReferences": {},
  "deployedLinkReferences": {}
}